{
    "_format": "hh-sol-artifact-1",
    "contractName": "Add",
    "sourceName": "contracts/Add.sol",
    "abi": [
        {
            "anonymous": false,
            "inputs": [
                {
                    "indexed": false,
                    "internalType": "address",
                    "name": "owner",
                    "type": "address"
                },
                {
                    "indexed": false,
                    "internalType": "uint256",
                    "name": "sum",
                    "type": "uint256"
                }
            ],
            "name": "Addition",
            "type": "event"
        },
        {
            "inputs": [
                {
                    "internalType": "uint256",
                    "name": "n1",
                    "type": "uint256"
                },
                {
                    "internalType": "uint256",
                    "name": "n2",
                    "type": "uint256"
                }
            ],
            "name": "getSum",
            "outputs": [],
            "stateMutability": "nonpayable",
            "type": "function"
        },
        {
            "inputs": [],
            "name": "sum",
            "outputs": [
                {
                    "internalType": "uint256",
                    "name": "",
                    "type": "uint256"
                }
            ],
            "stateMutability": "view",
            "type": "function"
        }
    ],
    "bytecode": "0x608060405234801561001057600080fd5b50610296806100206000396000f3fe608060405234801561001057600080fd5b50600436106100365760003560e01c8063853255cc1461003b5780638e86b12514610059575b600080fd5b610043610075565b60405161005091906100e5565b60405180910390f35b610073600480360381019061006e9190610131565b61007b565b005b60005481565b808261008791906101a0565b6000819055507fb54825b2c76307f83fb42e7c4610c435e8d3d912fffae506b4958f700b0ca0fb336000546040516100c0929190610237565b60405180910390a15050565b6000819050919050565b6100df816100cc565b82525050565b60006020820190506100fa60008301846100d6565b92915050565b600080fd5b61010e816100cc565b811461011957600080fd5b50565b60008135905061012b81610105565b92915050565b6000806040838503121561014857610147610100565b5b60006101568582860161011c565b92505060206101678582860161011c565b9150509250929050565b7f4e487b7100000000000000000000000000000000000000000000000000000000600052601160045260246000fd5b60006101ab826100cc565b91506101b6836100cc565b9250827fffffffffffffffffffffffffffffffffffffffffffffffffffffffffffffffff038211156101eb576101ea610171565b5b828201905092915050565b600073ffffffffffffffffffffffffffffffffffffffff82169050919050565b6000610221826101f6565b9050919050565b61023181610216565b82525050565b600060408201905061024c6000830185610228565b61025960208301846100d6565b939250505056fea2646970667358221220fa0596cc83265b32d10cf8414e18504e42d807e21d538b1b4b6471bdbaac6d7b64736f6c63430008090033",
    "linkReferences": {},
    "deployedLinkReferences": {}
}